{
  "_format": "hh-sol-artifact-1",
  "contractName": "NFT",
  "sourceName": "contracts/ERC721.sol",
  "abi": [
    {
      "inputs": [],
      "stateMutability": "nonpayable",
      "type": "constructor"
    },
    {
      "anonymous": false,
      "inputs": [
        {
          "indexed": true,
          "internalType": "address",
          "name": "owner",
          "type": "address"
        },
        {
          "indexed": true,
          "internalType": "address",
          "name": "approved",
          "type": "address"
        },
        {
          "indexed": true,
          "internalType": "uint256",
          "name": "tokenId",
          "type": "uint256"
        }
      ],
      "name": "Approval",
      "type": "event"
    },
    {
      "anonymous": false,
      "inputs": [
        {
          "indexed": true,
          "internalType": "address",
          "name": "owner",
          "type": "address"
        },
        {
          "indexed": true,
          "internalType": "address",
          "name": "operator",
          "type": "address"
        },
        {
          "indexed": false,
          "internalType": "bool",
          "name": "approved",
          "type": "bool"
        }
      ],
      "name": "ApprovalForAll",
      "type": "event"
    },
    {
      "anonymous": false,
      "inputs": [
        {
          "indexed": false,
          "internalType": "address",
          "name": "sender",
          "type": "address"
        },
        {
          "indexed": false,
          "internalType": "uint256",
          "name": "tokenId",
          "type": "uint256"
        }
      ],
      "name": "NewNFTMinted",
      "type": "event"
    },
    {
      "anonymous": false,
      "inputs": [
        {
          "indexed": true,
          "internalType": "address",
          "name": "from",
          "type": "address"
        },
        {
          "indexed": true,
          "internalType": "address",
          "name": "to",
          "type": "address"
        },
        {
          "indexed": true,
          "internalType": "uint256",
          "name": "tokenId",
          "type": "uint256"
        }
      ],
      "name": "Transfer",
      "type": "event"
    },
    {
      "inputs": [
        {
          "internalType": "address",
          "name": "to",
          "type": "address"
        },
        {
          "internalType": "uint256",
          "name": "tokenId",
          "type": "uint256"
        }
      ],
      "name": "approve",
      "outputs": [],
      "stateMutability": "nonpayable",
      "type": "function"
    },
    {
      "inputs": [
        {
          "internalType": "address",
          "name": "owner",
          "type": "address"
        }
      ],
      "name": "balanceOf",
      "outputs": [
        {
          "internalType": "uint256",
          "name": "",
          "type": "uint256"
        }
      ],
      "stateMutability": "view",
      "type": "function"
    },
    {
      "inputs": [
        {
          "internalType": "uint256",
          "name": "tokenId",
          "type": "uint256"
        }
      ],
      "name": "getApproved",
      "outputs": [
        {
          "internalType": "address",
          "name": "",
          "type": "address"
        }
      ],
      "stateMutability": "view",
      "type": "function"
    },
    {
      "inputs": [
        {
          "internalType": "address",
          "name": "owner",
          "type": "address"
        }
      ],
      "name": "getBalance",
      "outputs": [
        {
          "internalType": "uint256",
          "name": "",
          "type": "uint256"
        }
      ],
      "stateMutability": "view",
      "type": "function"
    },
    {
      "inputs": [],
      "name": "getTotalNFTsMintedSoFar",
      "outputs": [
        {
          "internalType": "uint256",
          "name": "",
          "type": "uint256"
        }
      ],
      "stateMutability": "view",
      "type": "function"
    },
    {
      "inputs": [
        {
          "internalType": "address",
          "name": "owner",
          "type": "address"
        },
        {
          "internalType": "address",
          "name": "operator",
          "type": "address"
        }
      ],
      "name": "isApprovedForAll",
      "outputs": [
        {
          "internalType": "bool",
          "name": "",
          "type": "bool"
        }
      ],
      "stateMutability": "view",
      "type": "function"
    },
    {
      "inputs": [],
      "name": "mint",
      "outputs": [],
      "stateMutability": "nonpayable",
      "type": "function"
    },
    {
      "inputs": [],
      "name": "name",
      "outputs": [
        {
          "internalType": "string",
          "name": "",
          "type": "string"
        }
      ],
      "stateMutability": "view",
      "type": "function"
    },
    {
      "inputs": [
        {
          "internalType": "uint256",
          "name": "tokenId",
          "type": "uint256"
        }
      ],
      "name": "ownerOf",
      "outputs": [
        {
          "internalType": "address",
          "name": "",
          "type": "address"
        }
      ],
      "stateMutability": "view",
      "type": "function"
    },
    {
      "inputs": [
        {
          "internalType": "address",
          "name": "from",
          "type": "address"
        },
        {
          "internalType": "address",
          "name": "to",
          "type": "address"
        },
        {
          "internalType": "uint256",
          "name": "tokenId",
          "type": "uint256"
        }
      ],
      "name": "safeTransferFrom",
      "outputs": [],
      "stateMutability": "nonpayable",
      "type": "function"
    },
    {
      "inputs": [
        {
          "internalType": "address",
          "name": "from",
          "type": "address"
        },
        {
          "internalType": "address",
          "name": "to",
          "type": "address"
        },
        {
          "internalType": "uint256",
          "name": "tokenId",
          "type": "uint256"
        },
        {
          "internalType": "bytes",
          "name": "_data",
          "type": "bytes"
        }
      ],
      "name": "safeTransferFrom",
      "outputs": [],
      "stateMutability": "nonpayable",
      "type": "function"
    },
    {
      "inputs": [
        {
          "internalType": "address",
          "name": "operator",
          "type": "address"
        },
        {
          "internalType": "bool",
          "name": "approved",
          "type": "bool"
        }
      ],
      "name": "setApprovalForAll",
      "outputs": [],
      "stateMutability": "nonpayable",
      "type": "function"
    },
    {
      "inputs": [
        {
          "internalType": "bytes4",
          "name": "interfaceId",
          "type": "bytes4"
        }
      ],
      "name": "supportsInterface",
      "outputs": [
        {
          "internalType": "bool",
          "name": "",
          "type": "bool"
        }
      ],
      "stateMutability": "view",
      "type": "function"
    },
    {
      "inputs": [],
      "name": "symbol",
      "outputs": [
        {
          "internalType": "string",
          "name": "",
          "type": "string"
        }
      ],
      "stateMutability": "view",
      "type": "function"
    },
    {
      "inputs": [
        {
          "internalType": "uint256",
          "name": "tokenId",
          "type": "uint256"
        }
      ],
      "name": "tokenURI",
      "outputs": [
        {
          "internalType": "string",
          "name": "",
          "type": "string"
        }
      ],
      "stateMutability": "view",
      "type": "function"
    },
    {
      "inputs": [
        {
          "internalType": "address",
          "name": "from",
          "type": "address"
        },
        {
          "internalType": "address",
          "name": "to",
          "type": "address"
        },
        {
          "internalType": "uint256",
          "name": "tokenId",
          "type": "uint256"
        }
      ],
      "name": "transferFrom",
      "outputs": [],
      "stateMutability": "nonpayable",
      "type": "function"
    }
  ],
  "bytecode": "0x60806040523480156200001157600080fd5b506040518060400160405280600681526020017f44616f4e465400000000000000000000000000000000000000000000000000008152506040518060400160405280600381526020017f44414f0000000000000000000000000000000000000000000000000000000000815250816000908051906020019062000096929190620001cf565b508060019080519060200190620000af929190620001cf565b505050620000fd6040518060400160405280601e81526020017f54686973206973206d79204e465420636f6e74726163742e20576f61682100008152506200010360201b62000c3c1760201c565b620003ac565b620001a3816040516024016200011a9190620002c0565b6040516020818303038152906040527f41304fac000000000000000000000000000000000000000000000000000000007bffffffffffffffffffffffffffffffffffffffffffffffffffffffff19166020820180517bffffffffffffffffffffffffffffffffffffffffffffffffffffffff8381831617835250505050620001a660201b60201c565b50565b60008151905060006a636f6e736f6c652e6c6f679050602083016000808483855afa5050505050565b828054620001dd9062000336565b90600052602060002090601f0160209004810192826200020157600085556200024d565b82601f106200021c57805160ff19168380011785556200024d565b828001600101855582156200024d579182015b828111156200024c5782518255916020019190600101906200022f565b5b5090506200025c919062000260565b5090565b5b808211156200027b57600081600090555060010162000261565b5090565b60006200028c82620002e4565b620002988185620002ef565b9350620002aa81856020860162000300565b620002b5816200039b565b840191505092915050565b60006020820190508181036000830152620002dc81846200027f565b905092915050565b600081519050919050565b600082825260208201905092915050565b60005b838110156200032057808201518184015260208101905062000303565b8381111562000330576000848401525b50505050565b600060028204905060018216806200034f57607f821691505b602082108114156200036657620003656200036c565b5b50919050565b7f4e487b7100000000000000000000000000000000000000000000000000000000600052602260045260246000fd5b6000601f19601f8301169050919050565b6131c280620003bc6000396000f3fe608060405234801561001057600080fd5b50600436106101005760003560e01c80636352211e11610097578063b88d4fde11610066578063b88d4fde14610299578063c87b56dd146102b5578063e985e9c5146102e5578063f8b2cb4f1461031557610100565b80636352211e146101ff57806370a082311461022f57806395d89b411461025f578063a22cb4651461027d57610100565b8063095ea7b3116100d3578063095ea7b3146101a15780631249c58b146101bd57806323b872dd146101c757806342842e0e146101e357610100565b806301ffc9a714610105578063060475901461013557806306fdde0314610153578063081812fc14610171575b600080fd5b61011f600480360381019061011a9190611e4b565b610345565b60405161012c919061229d565b60405180910390f35b61013d610427565b60405161014a9190612538565b60405180910390f35b61015b610438565b60405161016891906122b8565b60405180910390f35b61018b60048036038101906101869190611e9d565b6104ca565b604051610198919061220d565b60405180910390f35b6101bb60048036038101906101b69190611e0f565b61054f565b005b6101c5610667565b005b6101e160048036038101906101dc9190611d09565b610750565b005b6101fd60048036038101906101f89190611d09565b6107b0565b005b61021960048036038101906102149190611e9d565b6107d0565b604051610226919061220d565b60405180910390f35b61024960048036038101906102449190611ca4565b610882565b6040516102569190612538565b60405180910390f35b61026761093a565b60405161027491906122b8565b60405180910390f35b61029760048036038101906102929190611dd3565b6109cc565b005b6102b360048036038101906102ae9190611d58565b6109e2565b005b6102cf60048036038101906102ca9190611e9d565b610a44565b6040516102dc91906122b8565b60405180910390f35b6102ff60048036038101906102fa9190611ccd565b610b96565b60405161030c919061229d565b60405180910390f35b61032f600480360381019061032a9190611ca4565b610c2a565b60405161033c9190612538565b60405180910390f35b60007f80ac58cd000000000000000000000000000000000000000000000000000000007bffffffffffffffffffffffffffffffffffffffffffffffffffffffff1916827bffffffffffffffffffffffffffffffffffffffffffffffffffffffff1916148061041057507f5b5e139f000000000000000000000000000000000000000000000000000000007bffffffffffffffffffffffffffffffffffffffffffffffffffffffff1916827bffffffffffffffffffffffffffffffffffffffffffffffffffffffff1916145b80610420575061041f82610cd5565b5b9050919050565b60006104336007610d3f565b905090565b6060600080546104479061275d565b80601f01602080910402602001604051908101604052809291908181526020018280546104739061275d565b80156104c05780601f10610495576101008083540402835291602001916104c0565b820191906000526020600020905b8154815290600101906020018083116104a357829003601f168201915b5050505050905090565b60006104d582610d4d565b610514576040517f08c379a000000000000000000000000000000000000000000000000000000000815260040161050b90612498565b60405180910390fd5b6004600083815260200190815260200160002060009054906101000a900473ffffffffffffffffffffffffffffffffffffffff169050919050565b600061055a826107d0565b90508073ffffffffffffffffffffffffffffffffffffffff168373ffffffffffffffffffffffffffffffffffffffff1614156105cb576040517f08c379a00000000000000000000000000000000000000000000000000000000081526004016105c2906124f8565b60405180910390fd5b8073ffffffffffffffffffffffffffffffffffffffff166105ea610db9565b73ffffffffffffffffffffffffffffffffffffffff161480610619575061061881610613610db9565b610b96565b5b610658576040517f08c379a000000000000000000000000000000000000000000000000000000000815260040161064f906123d8565b60405180910390fd5b6106628383610dc1565b505050565b60006106736007610d3f565b9050600281106106b8576040517f08c379a00000000000000000000000000000000000000000000000000000000081526004016106af906123b8565b60405180910390fd5b6106c23382610e7a565b6106e78160405180610380016040528061035d8152602001612e3061035d9139610e98565b61070a604051806060016040528060258152602001612e0b602591398233610f0c565b6107146007610fab565b7f1c05098ed1ff38e6238d2b1b04b2c7977d4c94ce651bda6473f9dba8dbf01da03382604051610745929190612274565b60405180910390a150565b61076161075b610db9565b82610fc1565b6107a0576040517f08c379a000000000000000000000000000000000000000000000000000000000815260040161079790612518565b60405180910390fd5b6107ab83838361109f565b505050565b6107cb838383604051806020016040528060008152506109e2565b505050565b6000806002600084815260200190815260200160002060009054906101000a900473ffffffffffffffffffffffffffffffffffffffff169050600073ffffffffffffffffffffffffffffffffffffffff168173ffffffffffffffffffffffffffffffffffffffff161415610879576040517f08c379a000000000000000000000000000000000000000000000000000000000815260040161087090612418565b60405180910390fd5b80915050919050565b60008073ffffffffffffffffffffffffffffffffffffffff168273ffffffffffffffffffffffffffffffffffffffff1614156108f3576040517f08c379a00000000000000000000000000000000000000000000000000000000081526004016108ea906123f8565b60405180910390fd5b600360008373ffffffffffffffffffffffffffffffffffffffff1673ffffffffffffffffffffffffffffffffffffffff168152602001908152602001600020549050919050565b6060600180546109499061275d565b80601f01602080910402602001604051908101604052809291908181526020018280546109759061275d565b80156109c25780601f10610997576101008083540402835291602001916109c2565b820191906000526020600020905b8154815290600101906020018083116109a557829003601f168201915b5050505050905090565b6109de6109d7610db9565b83836112fb565b5050565b6109f36109ed610db9565b83610fc1565b610a32576040517f08c379a0000000000000000000000000000000000000000000000000000000008152600401610a2990612518565b60405180910390fd5b610a3e84848484611468565b50505050565b6060610a4f82610d4d565b610a8e576040517f08c379a0000000000000000000000000000000000000000000000000000000008152600401610a8590612478565b60405180910390fd5b6000600660008481526020019081526020016000208054610aae9061275d565b80601f0160208091040260200160405190810160405280929190818152602001828054610ada9061275d565b8015610b275780601f10610afc57610100808354040283529160200191610b27565b820191906000526020600020905b815481529060010190602001808311610b0a57829003601f168201915b505050505090506000610b386114c4565b9050600081511415610b4e578192505050610b91565b600082511115610b83578082604051602001610b6b9291906121e9565b60405160208183030381529060405292505050610b91565b610b8c846114db565b925050505b919050565b6000600560008473ffffffffffffffffffffffffffffffffffffffff1673ffffffffffffffffffffffffffffffffffffffff16815260200190815260200160002060008373ffffffffffffffffffffffffffffffffffffffff1673ffffffffffffffffffffffffffffffffffffffff16815260200190815260200160002060009054906101000a900460ff16905092915050565b6000610c3582610882565b9050919050565b610cd281604051602401610c5091906122b8565b6040516020818303038152906040527f41304fac000000000000000000000000000000000000000000000000000000007bffffffffffffffffffffffffffffffffffffffffffffffffffffffff19166020820180517bffffffffffffffffffffffffffffffffffffffffffffffffffffffff8381831617835250505050611582565b50565b60007f01ffc9a7000000000000000000000000000000000000000000000000000000007bffffffffffffffffffffffffffffffffffffffffffffffffffffffff1916827bffffffffffffffffffffffffffffffffffffffffffffffffffffffff1916149050919050565b600081600001549050919050565b60008073ffffffffffffffffffffffffffffffffffffffff166002600084815260200190815260200160002060009054906101000a900473ffffffffffffffffffffffffffffffffffffffff1673ffffffffffffffffffffffffffffffffffffffff1614159050919050565b600033905090565b816004600083815260200190815260200160002060006101000a81548173ffffffffffffffffffffffffffffffffffffffff021916908373ffffffffffffffffffffffffffffffffffffffff160217905550808273ffffffffffffffffffffffffffffffffffffffff16610e34836107d0565b73ffffffffffffffffffffffffffffffffffffffff167f8c5be1e5ebec7d5bd14f71427d1e84f3dd0314c0f7b2291e5b200ac8c7c3b92560405160405180910390a45050565b610e948282604051806020016040528060008152506115ab565b5050565b610ea182610d4d565b610ee0576040517f08c379a0000000000000000000000000000000000000000000000000000000008152600401610ed790612438565b60405180910390fd5b80600660008481526020019081526020016000209080519060200190610f07929190611b30565b505050565b610fa6838383604051602401610f24939291906122da565b6040516020818303038152906040527fe3849f79000000000000000000000000000000000000000000000000000000007bffffffffffffffffffffffffffffffffffffffffffffffffffffffff19166020820180517bffffffffffffffffffffffffffffffffffffffffffffffffffffffff8381831617835250505050611582565b505050565b6001816000016000828254019250508190555050565b6000610fcc82610d4d565b61100b576040517f08c379a000000000000000000000000000000000000000000000000000000000815260040161100290612398565b60405180910390fd5b6000611016836107d0565b90508073ffffffffffffffffffffffffffffffffffffffff168473ffffffffffffffffffffffffffffffffffffffff16148061108557508373ffffffffffffffffffffffffffffffffffffffff1661106d846104ca565b73ffffffffffffffffffffffffffffffffffffffff16145b8061109657506110958185610b96565b5b91505092915050565b8273ffffffffffffffffffffffffffffffffffffffff166110bf826107d0565b73ffffffffffffffffffffffffffffffffffffffff1614611115576040517f08c379a000000000000000000000000000000000000000000000000000000000815260040161110c906124b8565b60405180910390fd5b600073ffffffffffffffffffffffffffffffffffffffff168273ffffffffffffffffffffffffffffffffffffffff161415611185576040517f08c379a000000000000000000000000000000000000000000000000000000000815260040161117c90612358565b60405180910390fd5b611190838383611606565b61119b600082610dc1565b6001600360008573ffffffffffffffffffffffffffffffffffffffff1673ffffffffffffffffffffffffffffffffffffffff16815260200190815260200160002060008282546111eb9190612673565b925050819055506001600360008473ffffffffffffffffffffffffffffffffffffffff1673ffffffffffffffffffffffffffffffffffffffff168152602001908152602001600020600082825461124291906125ec565b92505081905550816002600083815260200190815260200160002060006101000a81548173ffffffffffffffffffffffffffffffffffffffff021916908373ffffffffffffffffffffffffffffffffffffffff160217905550808273ffffffffffffffffffffffffffffffffffffffff168473ffffffffffffffffffffffffffffffffffffffff167fddf252ad1be2c89b69c2b068fc378daa952ba7f163c4a11628f55a4df523b3ef60405160405180910390a4505050565b8173ffffffffffffffffffffffffffffffffffffffff168373ffffffffffffffffffffffffffffffffffffffff16141561136a576040517f08c379a000000000000000000000000000000000000000000000000000000000815260040161136190612378565b60405180910390fd5b80600560008573ffffffffffffffffffffffffffffffffffffffff1673ffffffffffffffffffffffffffffffffffffffff16815260200190815260200160002060008473ffffffffffffffffffffffffffffffffffffffff1673ffffffffffffffffffffffffffffffffffffffff16815260200190815260200160002060006101000a81548160ff0219169083151502179055508173ffffffffffffffffffffffffffffffffffffffff168373ffffffffffffffffffffffffffffffffffffffff167f17307eab39ab6107e8899845ad3d59bd9653f200f220920489ca2b5937696c318360405161145b919061229d565b60405180910390a3505050565b61147384848461109f565b61147f8484848461160b565b6114be576040517f08c379a00000000000000000000000000000000000000000000000000000000081526004016114b590612318565b60405180910390fd5b50505050565b606060405180602001604052806000815250905090565b60606114e682610d4d565b611525576040517f08c379a000000000000000000000000000000000000000000000000000000000815260040161151c906124d8565b60405180910390fd5b600061152f6114c4565b9050600081511161154f576040518060200160405280600081525061157a565b80611559846117a2565b60405160200161156a9291906121e9565b6040516020818303038152906040525b915050919050565b60008151905060006a636f6e736f6c652e6c6f679050602083016000808483855afa5050505050565b6115b5838361194f565b6115c2600084848461160b565b611601576040517f08c379a00000000000000000000000000000000000000000000000000000000081526004016115f890612318565b60405180910390fd5b505050565b505050565b600061162c8473ffffffffffffffffffffffffffffffffffffffff16611b1d565b15611795578373ffffffffffffffffffffffffffffffffffffffff1663150b7a02611655610db9565b8786866040518563ffffffff1660e01b81526004016116779493929190612228565b602060405180830381600087803b15801561169157600080fd5b505af19250505080156116c257506040513d601f19601f820116820180604052508101906116bf9190611e74565b60015b611745573d80600081146116f2576040519150601f19603f3d011682016040523d82523d6000602084013e6116f7565b606091505b5060008151141561173d576040517f08c379a000000000000000000000000000000000000000000000000000000000815260040161173490612318565b60405180910390fd5b805181602001fd5b63150b7a0260e01b7bffffffffffffffffffffffffffffffffffffffffffffffffffffffff1916817bffffffffffffffffffffffffffffffffffffffffffffffffffffffff19161491505061179a565b600190505b949350505050565b606060008214156117ea576040518060400160405280600181526020017f3000000000000000000000000000000000000000000000000000000000000000815250905061194a565b600082905060005b6000821461181c578080611805906127c0565b915050600a826118159190612642565b91506117f2565b60008167ffffffffffffffff81111561185e577f4e487b7100000000000000000000000000000000000000000000000000000000600052604160045260246000fd5b6040519080825280601f01601f1916602001820160405280156118905781602001600182028036833780820191505090505b5090505b60008514611943576001826118a99190612673565b9150600a856118b89190612809565b60306118c491906125ec565b60f81b818381518110611900577f4e487b7100000000000000000000000000000000000000000000000000000000600052603260045260246000fd5b60200101907effffffffffffffffffffffffffffffffffffffffffffffffffffffffffffff1916908160001a905350600a8561193c9190612642565b9450611894565b8093505050505b919050565b600073ffffffffffffffffffffffffffffffffffffffff168273ffffffffffffffffffffffffffffffffffffffff1614156119bf576040517f08c379a00000000000000000000000000000000000000000000000000000000081526004016119b690612458565b60405180910390fd5b6119c881610d4d565b15611a08576040517f08c379a00000000000000000000000000000000000000000000000000000000081526004016119ff90612338565b60405180910390fd5b611a1460008383611606565b6001600360008473ffffffffffffffffffffffffffffffffffffffff1673ffffffffffffffffffffffffffffffffffffffff1681526020019081526020016000206000828254611a6491906125ec565b92505081905550816002600083815260200190815260200160002060006101000a81548173ffffffffffffffffffffffffffffffffffffffff021916908373ffffffffffffffffffffffffffffffffffffffff160217905550808273ffffffffffffffffffffffffffffffffffffffff16600073ffffffffffffffffffffffffffffffffffffffff167fddf252ad1be2c89b69c2b068fc378daa952ba7f163c4a11628f55a4df523b3ef60405160405180910390a45050565b600080823b905060008111915050919050565b828054611b3c9061275d565b90600052602060002090601f016020900481019282611b5e5760008555611ba5565b82601f10611b7757805160ff1916838001178555611ba5565b82800160010185558215611ba5579182015b82811115611ba4578251825591602001919060010190611b89565b5b509050611bb29190611bb6565b5090565b5b80821115611bcf576000816000905550600101611bb7565b5090565b6000611be6611be184612578565b612553565b905082815260208101848484011115611bfe57600080fd5b611c0984828561271b565b509392505050565b600081359050611c2081612dae565b92915050565b600081359050611c3581612dc5565b92915050565b600081359050611c4a81612ddc565b92915050565b600081519050611c5f81612ddc565b92915050565b600082601f830112611c7657600080fd5b8135611c86848260208601611bd3565b91505092915050565b600081359050611c9e81612df3565b92915050565b600060208284031215611cb657600080fd5b6000611cc484828501611c11565b91505092915050565b60008060408385031215611ce057600080fd5b6000611cee85828601611c11565b9250506020611cff85828601611c11565b9150509250929050565b600080600060608486031215611d1e57600080fd5b6000611d2c86828701611c11565b9350506020611d3d86828701611c11565b9250506040611d4e86828701611c8f565b9150509250925092565b60008060008060808587031215611d6e57600080fd5b6000611d7c87828801611c11565b9450506020611d8d87828801611c11565b9350506040611d9e87828801611c8f565b925050606085013567ffffffffffffffff811115611dbb57600080fd5b611dc787828801611c65565b91505092959194509250565b60008060408385031215611de657600080fd5b6000611df485828601611c11565b9250506020611e0585828601611c26565b9150509250929050565b60008060408385031215611e2257600080fd5b6000611e3085828601611c11565b9250506020611e4185828601611c8f565b9150509250929050565b600060208284031215611e5d57600080fd5b6000611e6b84828501611c3b565b91505092915050565b600060208284031215611e8657600080fd5b6000611e9484828501611c50565b91505092915050565b600060208284031215611eaf57600080fd5b6000611ebd84828501611c8f565b91505092915050565b611ecf816126a7565b82525050565b611ede816126b9565b82525050565b6000611eef826125a9565b611ef981856125bf565b9350611f0981856020860161272a565b611f12816128f6565b840191505092915050565b6000611f28826125b4565b611f3281856125d0565b9350611f4281856020860161272a565b611f4b816128f6565b840191505092915050565b6000611f61826125b4565b611f6b81856125e1565b9350611f7b81856020860161272a565b80840191505092915050565b6000611f946032836125d0565b9150611f9f82612907565b604082019050919050565b6000611fb7601c836125d0565b9150611fc282612956565b602082019050919050565b6000611fda6024836125d0565b9150611fe58261297f565b604082019050919050565b6000611ffd6019836125d0565b9150612008826129ce565b602082019050919050565b6000612020602c836125d0565b915061202b826129f7565b604082019050919050565b6000612043601d836125d0565b915061204e82612a46565b602082019050919050565b60006120666038836125d0565b915061207182612a6f565b604082019050919050565b6000612089602a836125d0565b915061209482612abe565b604082019050919050565b60006120ac6029836125d0565b91506120b782612b0d565b604082019050919050565b60006120cf602e836125d0565b91506120da82612b5c565b604082019050919050565b60006120f26020836125d0565b91506120fd82612bab565b602082019050919050565b60006121156031836125d0565b915061212082612bd4565b604082019050919050565b6000612138602c836125d0565b915061214382612c23565b604082019050919050565b600061215b6029836125d0565b915061216682612c72565b604082019050919050565b600061217e602f836125d0565b915061218982612cc1565b604082019050919050565b60006121a16021836125d0565b91506121ac82612d10565b604082019050919050565b60006121c46031836125d0565b91506121cf82612d5f565b604082019050919050565b6121e381612711565b82525050565b60006121f58285611f56565b91506122018284611f56565b91508190509392505050565b60006020820190506122226000830184611ec6565b92915050565b600060808201905061223d6000830187611ec6565b61224a6020830186611ec6565b61225760408301856121da565b81810360608301526122698184611ee4565b905095945050505050565b60006040820190506122896000830185611ec6565b61229660208301846121da565b9392505050565b60006020820190506122b26000830184611ed5565b92915050565b600060208201905081810360008301526122d28184611f1d565b905092915050565b600060608201905081810360008301526122f48186611f1d565b905061230360208301856121da565b6123106040830184611ec6565b949350505050565b6000602082019050818103600083015261233181611f87565b9050919050565b6000602082019050818103600083015261235181611faa565b9050919050565b6000602082019050818103600083015261237181611fcd565b9050919050565b6000602082019050818103600083015261239181611ff0565b9050919050565b600060208201905081810360008301526123b181612013565b9050919050565b600060208201905081810360008301526123d181612036565b9050919050565b600060208201905081810360008301526123f181612059565b9050919050565b600060208201905081810360008301526124118161207c565b9050919050565b600060208201905081810360008301526124318161209f565b9050919050565b60006020820190508181036000830152612451816120c2565b9050919050565b60006020820190508181036000830152612471816120e5565b9050919050565b6000602082019050818103600083015261249181612108565b9050919050565b600060208201905081810360008301526124b18161212b565b9050919050565b600060208201905081810360008301526124d18161214e565b9050919050565b600060208201905081810360008301526124f181612171565b9050919050565b6000602082019050818103600083015261251181612194565b9050919050565b60006020820190508181036000830152612531816121b7565b9050919050565b600060208201905061254d60008301846121da565b92915050565b600061255d61256e565b9050612569828261278f565b919050565b6000604051905090565b600067ffffffffffffffff821115612593576125926128c7565b5b61259c826128f6565b9050602081019050919050565b600081519050919050565b600081519050919050565b600082825260208201905092915050565b600082825260208201905092915050565b600081905092915050565b60006125f782612711565b915061260283612711565b9250827fffffffffffffffffffffffffffffffffffffffffffffffffffffffffffffffff038211156126375761263661283a565b5b828201905092915050565b600061264d82612711565b915061265883612711565b92508261266857612667612869565b5b828204905092915050565b600061267e82612711565b915061268983612711565b92508282101561269c5761269b61283a565b5b828203905092915050565b60006126b2826126f1565b9050919050565b60008115159050919050565b60007fffffffff0000000000000000000000000000000000000000000000000000000082169050919050565b600073ffffffffffffffffffffffffffffffffffffffff82169050919050565b6000819050919050565b82818337600083830152505050565b60005b8381101561274857808201518184015260208101905061272d565b83811115612757576000848401525b50505050565b6000600282049050600182168061277557607f821691505b6020821081141561278957612788612898565b5b50919050565b612798826128f6565b810181811067ffffffffffffffff821117156127b7576127b66128c7565b5b80604052505050565b60006127cb82612711565b91507fffffffffffffffffffffffffffffffffffffffffffffffffffffffffffffffff8214156127fe576127fd61283a565b5b600182019050919050565b600061281482612711565b915061281f83612711565b92508261282f5761282e612869565b5b828206905092915050565b7f4e487b7100000000000000000000000000000000000000000000000000000000600052601160045260246000fd5b7f4e487b7100000000000000000000000000000000000000000000000000000000600052601260045260246000fd5b7f4e487b7100000000000000000000000000000000000000000000000000000000600052602260045260246000fd5b7f4e487b7100000000000000000000000000000000000000000000000000000000600052604160045260246000fd5b6000601f19601f8301169050919050565b7f4552433732313a207472616e7366657220746f206e6f6e20455243373231526560008201527f63656976657220696d706c656d656e7465720000000000000000000000000000602082015250565b7f4552433732313a20746f6b656e20616c7265616479206d696e74656400000000600082015250565b7f4552433732313a207472616e7366657220746f20746865207a65726f2061646460008201527f7265737300000000000000000000000000000000000000000000000000000000602082015250565b7f4552433732313a20617070726f766520746f2063616c6c657200000000000000600082015250565b7f4552433732313a206f70657261746f7220717565727920666f72206e6f6e657860008201527f697374656e7420746f6b656e0000000000000000000000000000000000000000602082015250565b7f4f6e6c792032204e46547320746f206265206d696e746564206d617821000000600082015250565b7f4552433732313a20617070726f76652063616c6c6572206973206e6f74206f7760008201527f6e6572206e6f7220617070726f76656420666f7220616c6c0000000000000000602082015250565b7f4552433732313a2062616c616e636520717565727920666f7220746865207a6560008201527f726f206164647265737300000000000000000000000000000000000000000000602082015250565b7f4552433732313a206f776e657220717565727920666f72206e6f6e657869737460008201527f656e7420746f6b656e0000000000000000000000000000000000000000000000602082015250565b7f45524337323155524953746f726167653a2055524920736574206f66206e6f6e60008201527f6578697374656e7420746f6b656e000000000000000000000000000000000000602082015250565b7f4552433732313a206d696e7420746f20746865207a65726f2061646472657373600082015250565b7f45524337323155524953746f726167653a2055524920717565727920666f722060008201527f6e6f6e6578697374656e7420746f6b656e000000000000000000000000000000602082015250565b7f4552433732313a20617070726f76656420717565727920666f72206e6f6e657860008201527f697374656e7420746f6b656e0000000000000000000000000000000000000000602082015250565b7f4552433732313a207472616e73666572206f6620746f6b656e2074686174206960008201527f73206e6f74206f776e0000000000000000000000000000000000000000000000602082015250565b7f4552433732314d657461646174613a2055524920717565727920666f72206e6f60008201527f6e6578697374656e7420746f6b656e0000000000000000000000000000000000602082015250565b7f4552433732313a20617070726f76616c20746f2063757272656e74206f776e6560008201527f7200000000000000000000000000000000000000000000000000000000000000602082015250565b7f4552433732313a207472616e736665722063616c6c6572206973206e6f74206f60008201527f776e6572206e6f7220617070726f766564000000000000000000000000000000602082015250565b612db7816126a7565b8114612dc257600080fd5b50565b612dce816126b9565b8114612dd957600080fd5b50565b612de5816126c5565b8114612df057600080fd5b50565b612dfc81612711565b8114612e0757600080fd5b5056fe416e204e465420772f20494420257320686173206265656e206d696e74656420746f202573646174613a6170706c69636174696f6e2f6a736f6e3b6261736536342c65776f6749434167496d3568625755694f6941695258427059307876636d52495957316964584a6e5a5849694c416f6749434167496d526c63324e796158423061573975496a6f67496b4675494535475643426d636d39744948526f5a53426f6157646f62486b6759574e6a624746706257566b49484e78645746795a53426a623278735a574e30615739754969774b4943416749434a706257466e5a53493649434a6b595852684f6d6c745957646c4c334e325a79743462577737596d467a5a5459304c464249546a4a6165554930596c643464574e364d476c685346497759305276646b777a5a444e6b6554557a54586b31646d4e7459335a4e616b463354554d35656d527459326c4a53454a35576c684f62474e75576d785257453533576c644f4d465674526a4268567a67355357356f546d46584e56705556327831535563786246705955576c4a53467077576c686b5132497a5a7a6c4a616b466e54554e42656b35555157644e656c563353576f30546b4e705157644a51304534597a4e534e574a485653744d6255706f597a4a565a325635516d31685633687a54326c434d3246486244426156484e6e576d3035645752444d57315a567a4677596b68724e6b6c49546d786a6257787454336c43625749794e54424d574535775a5731564e6b6c455254426a53476333535567774f45777a546a426c563368735547637753306c445157644a52486835576c644f4d456c495a48426153464a7655464e4a654531455157784a61554a76576c6473626d464955546c4a616b563354554e5661556c48576e4269523363355357314b63316c58546e4a4a615546325547637753306c445157644a52486777576c686f4d456c495a7a6c4a616c5633536c4e4a5a3256554d476c4f5645467353576c43616d4a48526e706a656a427057573147656c705453576461527a6c305956633161474a755558525a62555a36576c643463474a7456546c4a62544677576b6453633170545357646b523159305a454d7861474a74546d39694d306b355357307863467048556e4e6155306b72556c684363466b7765485a6a62564a4a5756637861575259536d356157456b3454444e5362475649555374455557383454444e4f4d6c70364e443069436e303da2646970667358221220b51811bae44a8b98a79fb35f2350f70dfc03527c0e80b309e82e9f944b3f35f864736f6c63430008040033",
  "linkReferences": {},
  "deployedLinkReferences": {}
}